{
  "_format": "hh-sol-artifact-1",
  "contractName": "NFTMarketplace",
  "sourceName": "contracts/NFTMarketplace.sol",
  "abi": [
    {
      "inputs": [],
      "stateMutability": "nonpayable",
      "type": "constructor"
    },
    {
      "anonymous": false,
      "inputs": [
        {
          "indexed": true,
          "internalType": "address",
          "name": "owner",
          "type": "address"
        },
        {
          "indexed": true,
          "internalType": "address",
          "name": "approved",
          "type": "address"
        },
        {
          "indexed": true,
          "internalType": "uint256",
          "name": "tokenId",
          "type": "uint256"
        }
      ],
      "name": "Approval",
      "type": "event"
    },
    {
      "anonymous": false,
      "inputs": [
        {
          "indexed": true,
          "internalType": "address",
          "name": "owner",
          "type": "address"
        },
        {
          "indexed": true,
          "internalType": "address",
          "name": "operator",
          "type": "address"
        },
        {
          "indexed": false,
          "internalType": "bool",
          "name": "approved",
          "type": "bool"
        }
      ],
      "name": "ApprovalForAll",
      "type": "event"
    },
    {
      "anonymous": false,
      "inputs": [
        {
          "indexed": true,
          "internalType": "uint256",
          "name": "tokenId",
          "type": "uint256"
        },
        {
          "indexed": false,
          "internalType": "address",
          "name": "owner",
          "type": "address"
        },
        {
          "indexed": false,
          "internalType": "address",
          "name": "seller",
          "type": "address"
        },
        {
          "indexed": false,
          "internalType": "uint256",
          "name": "price",
          "type": "uint256"
        },
        {
          "indexed": false,
          "internalType": "bool",
          "name": "currentlyListed",
          "type": "bool"
        }
      ],
      "name": "TokenListedSuccess",
      "type": "event"
    },
    {
      "anonymous": false,
      "inputs": [
        {
          "indexed": true,
          "internalType": "address",
          "name": "from",
          "type": "address"
        },
        {
          "indexed": true,
          "internalType": "address",
          "name": "to",
          "type": "address"
        },
        {
          "indexed": true,
          "internalType": "uint256",
          "name": "tokenId",
          "type": "uint256"
        }
      ],
      "name": "Transfer",
      "type": "event"
    },
    {
      "inputs": [
        {
          "internalType": "address",
          "name": "to",
          "type": "address"
        },
        {
          "internalType": "uint256",
          "name": "tokenId",
          "type": "uint256"
        }
      ],
      "name": "approve",
      "outputs": [],
      "stateMutability": "nonpayable",
      "type": "function"
    },
    {
      "inputs": [
        {
          "internalType": "address",
          "name": "owner",
          "type": "address"
        }
      ],
      "name": "balanceOf",
      "outputs": [
        {
          "internalType": "uint256",
          "name": "",
          "type": "uint256"
        }
      ],
      "stateMutability": "view",
      "type": "function"
    },
    {
      "inputs": [
        {
          "internalType": "string",
          "name": "tokenURI",
          "type": "string"
        },
        {
          "internalType": "uint256",
          "name": "price",
          "type": "uint256"
        }
      ],
      "name": "createToken",
      "outputs": [
        {
          "internalType": "uint256",
          "name": "",
          "type": "uint256"
        }
      ],
      "stateMutability": "payable",
      "type": "function"
    },
    {
      "inputs": [
        {
          "internalType": "uint256",
          "name": "tokenId",
          "type": "uint256"
        }
      ],
      "name": "executeSale",
      "outputs": [],
      "stateMutability": "payable",
      "type": "function"
    },
    {
      "inputs": [],
      "name": "getAllNFTs",
      "outputs": [
        {
          "components": [
            {
              "internalType": "uint256",
              "name": "tokenId",
              "type": "uint256"
            },
            {
              "internalType": "address payable",
              "name": "owner",
              "type": "address"
            },
            {
              "internalType": "address payable",
              "name": "seller",
              "type": "address"
            },
            {
              "internalType": "uint256",
              "name": "price",
              "type": "uint256"
            },
            {
              "internalType": "bool",
              "name": "currentlyListed",
              "type": "bool"
            }
          ],
          "internalType": "struct NFTMarketplace.ListedToken[]",
          "name": "",
          "type": "tuple[]"
        }
      ],
      "stateMutability": "view",
      "type": "function"
    },
    {
      "inputs": [
        {
          "internalType": "uint256",
          "name": "tokenId",
          "type": "uint256"
        }
      ],
      "name": "getApproved",
      "outputs": [
        {
          "internalType": "address",
          "name": "",
          "type": "address"
        }
      ],
      "stateMutability": "view",
      "type": "function"
    },
    {
      "inputs": [],
      "name": "getCurrentToken",
      "outputs": [
        {
          "internalType": "uint256",
          "name": "",
          "type": "uint256"
        }
      ],
      "stateMutability": "view",
      "type": "function"
    },
    {
      "inputs": [],
      "name": "getLatestIdToListedToken",
      "outputs": [
        {
          "components": [
            {
              "internalType": "uint256",
              "name": "tokenId",
              "type": "uint256"
            },
            {
              "internalType": "address payable",
              "name": "owner",
              "type": "address"
            },
            {
              "internalType": "address payable",
              "name": "seller",
              "type": "address"
            },
            {
              "internalType": "uint256",
              "name": "price",
              "type": "uint256"
            },
            {
              "internalType": "bool",
              "name": "currentlyListed",
              "type": "bool"
            }
          ],
          "internalType": "struct NFTMarketplace.ListedToken",
          "name": "",
          "type": "tuple"
        }
      ],
      "stateMutability": "view",
      "type": "function"
    },
    {
      "inputs": [],
      "name": "getListPrice",
      "outputs": [
        {
          "internalType": "uint256",
          "name": "",
          "type": "uint256"
        }
      ],
      "stateMutability": "view",
      "type": "function"
    },
    {
      "inputs": [
        {
          "internalType": "uint256",
          "name": "tokenId",
          "type": "uint256"
        }
      ],
      "name": "getListedTokenForId",
      "outputs": [
        {
          "components": [
            {
              "internalType": "uint256",
              "name": "tokenId",
              "type": "uint256"
            },
            {
              "internalType": "address payable",
              "name": "owner",
              "type": "address"
            },
            {
              "internalType": "address payable",
              "name": "seller",
              "type": "address"
            },
            {
              "internalType": "uint256",
              "name": "price",
              "type": "uint256"
            },
            {
              "internalType": "bool",
              "name": "currentlyListed",
              "type": "bool"
            }
          ],
          "internalType": "struct NFTMarketplace.ListedToken",
          "name": "",
          "type": "tuple"
        }
      ],
      "stateMutability": "view",
      "type": "function"
    },
    {
      "inputs": [],
      "name": "getMyNFTs",
      "outputs": [
        {
          "components": [
            {
              "internalType": "uint256",
              "name": "tokenId",
              "type": "uint256"
            },
            {
              "internalType": "address payable",
              "name": "owner",
              "type": "address"
            },
            {
              "internalType": "address payable",
              "name": "seller",
              "type": "address"
            },
            {
              "internalType": "uint256",
              "name": "price",
              "type": "uint256"
            },
            {
              "internalType": "bool",
              "name": "currentlyListed",
              "type": "bool"
            }
          ],
          "internalType": "struct NFTMarketplace.ListedToken[]",
          "name": "",
          "type": "tuple[]"
        }
      ],
      "stateMutability": "view",
      "type": "function"
    },
    {
      "inputs": [
        {
          "internalType": "address",
          "name": "owner",
          "type": "address"
        },
        {
          "internalType": "address",
          "name": "operator",
          "type": "address"
        }
      ],
      "name": "isApprovedForAll",
      "outputs": [
        {
          "internalType": "bool",
          "name": "",
          "type": "bool"
        }
      ],
      "stateMutability": "view",
      "type": "function"
    },
    {
      "inputs": [],
      "name": "name",
      "outputs": [
        {
          "internalType": "string",
          "name": "",
          "type": "string"
        }
      ],
      "stateMutability": "view",
      "type": "function"
    },
    {
      "inputs": [
        {
          "internalType": "uint256",
          "name": "tokenId",
          "type": "uint256"
        }
      ],
      "name": "ownerOf",
      "outputs": [
        {
          "internalType": "address",
          "name": "",
          "type": "address"
        }
      ],
      "stateMutability": "view",
      "type": "function"
    },
    {
      "inputs": [
        {
          "internalType": "address",
          "name": "from",
          "type": "address"
        },
        {
          "internalType": "address",
          "name": "to",
          "type": "address"
        },
        {
          "internalType": "uint256",
          "name": "tokenId",
          "type": "uint256"
        }
      ],
      "name": "safeTransferFrom",
      "outputs": [],
      "stateMutability": "nonpayable",
      "type": "function"
    },
    {
      "inputs": [
        {
          "internalType": "address",
          "name": "from",
          "type": "address"
        },
        {
          "internalType": "address",
          "name": "to",
          "type": "address"
        },
        {
          "internalType": "uint256",
          "name": "tokenId",
          "type": "uint256"
        },
        {
          "internalType": "bytes",
          "name": "data",
          "type": "bytes"
        }
      ],
      "name": "safeTransferFrom",
      "outputs": [],
      "stateMutability": "nonpayable",
      "type": "function"
    },
    {
      "inputs": [
        {
          "internalType": "address",
          "name": "operator",
          "type": "address"
        },
        {
          "internalType": "bool",
          "name": "approved",
          "type": "bool"
        }
      ],
      "name": "setApprovalForAll",
      "outputs": [],
      "stateMutability": "nonpayable",
      "type": "function"
    },
    {
      "inputs": [
        {
          "internalType": "bytes4",
          "name": "interfaceId",
          "type": "bytes4"
        }
      ],
      "name": "supportsInterface",
      "outputs": [
        {
          "internalType": "bool",
          "name": "",
          "type": "bool"
        }
      ],
      "stateMutability": "view",
      "type": "function"
    },
    {
      "inputs": [],
      "name": "symbol",
      "outputs": [
        {
          "internalType": "string",
          "name": "",
          "type": "string"
        }
      ],
      "stateMutability": "view",
      "type": "function"
    },
    {
      "inputs": [
        {
          "internalType": "uint256",
          "name": "tokenId",
          "type": "uint256"
        }
      ],
      "name": "tokenURI",
      "outputs": [
        {
          "internalType": "string",
          "name": "",
          "type": "string"
        }
      ],
      "stateMutability": "view",
      "type": "function"
    },
    {
      "inputs": [
        {
          "internalType": "address",
          "name": "from",
          "type": "address"
        },
        {
          "internalType": "address",
          "name": "to",
          "type": "address"
        },
        {
          "internalType": "uint256",
          "name": "tokenId",
          "type": "uint256"
        }
      ],
      "name": "transferFrom",
      "outputs": [],
      "stateMutability": "nonpayable",
      "type": "function"
    },
    {
      "inputs": [
        {
          "internalType": "uint256",
          "name": "_listPrice",
          "type": "uint256"
        }
      ],
      "name": "updateListPrice",
      "outputs": [],
      "stateMutability": "payable",
      "type": "function"
    },
    {
      "inputs": [
        {
          "internalType": "uint256",
          "name": "tokenId",
          "type": "uint256"
        },
        {
          "internalType": "string",
          "name": "tokenURI",
          "type": "string"
        },
        {
          "internalType": "uint256",
          "name": "price",
          "type": "uint256"
        },
        {
          "internalType": "address",
          "name": "seller",
          "type": "address"
        }
      ],
      "name": "updateTokenPrice",
      "outputs": [],
      "stateMutability": "payable",
      "type": "function"
    }
  ],
  "bytecode": "0x6080604052662386f26fc10000600a553480156200001c57600080fd5b50604080518082018252600e81526d4e46544d61726b6574706c61636560901b6020808301918252835180850190945260048452634e46544d60e01b9084015281519192916200006f91600091620000a0565b50805162000085906001906020840190620000a0565b5050600980546001600160a01b031916331790555062000183565b828054620000ae9062000146565b90600052602060002090601f016020900481019282620000d257600085556200011d565b82601f10620000ed57805160ff19168380011785556200011d565b828001600101855582156200011d579182015b828111156200011d57825182559160200191906001019062000100565b506200012b9291506200012f565b5090565b5b808211156200012b576000815560010162000130565b600181811c908216806200015b57607f821691505b602082108114156200017d57634e487b7160e01b600052602260045260246000fd5b50919050565b61223b80620001936000396000f3fe6080604052600436106101405760003560e01c80638e264590116100b6578063c87b56dd1161006f578063c87b56dd14610372578063d1a88ae514610392578063e0391b09146103a7578063e985e9c5146103bc578063ef2d174614610405578063f0a31f921461041a57600080fd5b80638e264590146102ca57806395d89b41146102f75780639b1225c41461030c578063a22cb4651461031f578063b88d4fde1461033f578063c322579c1461035f57600080fd5b806342842e0e1161010857806342842e0e14610216578063629cb2e4146102365780636352211e1461025857806368f1945f1461027857806370a082311461029757806372b3b620146102b757600080fd5b806301ffc9a71461014557806306fdde031461017a578063081812fc1461019c578063095ea7b3146101d457806323b872dd146101f6575b600080fd5b34801561015157600080fd5b50610165610160366004611d76565b61042d565b60405190151581526020015b60405180910390f35b34801561018657600080fd5b5061018f61047f565b6040516101719190611f8e565b3480156101a857600080fd5b506101bc6101b7366004611df1565b610511565b6040516001600160a01b039091168152602001610171565b3480156101e057600080fd5b506101f46101ef366004611d4d565b610538565b005b34801561020257600080fd5b506101f4610211366004611c5f565b610653565b34801561022257600080fd5b506101f4610231366004611c5f565b610684565b34801561024257600080fd5b5061024b61069f565b6040516101719190611f40565b34801561026457600080fd5b506101bc610273366004611df1565b6108e2565b34801561028457600080fd5b50600a545b604051908152602001610171565b3480156102a357600080fd5b506102896102b2366004611c13565b610942565b6102896102c5366004611dae565b6109c8565b3480156102d657600080fd5b506102ea6102e5366004611df1565b610a0a565b60405161017191906120c6565b34801561030357600080fd5b5061018f610a74565b6101f461031a366004611df1565b610a83565b34801561032b57600080fd5b506101f461033a366004611d13565b610be7565b34801561034b57600080fd5b506101f461035a366004611c9a565b610bf6565b6101f461036d366004611df1565b610c28565b34801561037e57600080fd5b5061018f61038d366004611df1565b610c93565b34801561039e57600080fd5b506102ea610da4565b3480156103b357600080fd5b5061024b610e1b565b3480156103c857600080fd5b506101656103d7366004611c2d565b6001600160a01b03918216600090815260056020908152604080832093909416825291909152205460ff1690565b34801561041157600080fd5b50610289610f61565b6101f4610428366004611e09565b610f71565b60006001600160e01b031982166380ac58cd60e01b148061045e57506001600160e01b03198216635b5e139f60e01b145b8061047957506301ffc9a760e01b6001600160e01b03198316145b92915050565b60606000805461048e90612143565b80601f01602080910402602001604051908101604052809291908181526020018280546104ba90612143565b80156105075780601f106104dc57610100808354040283529160200191610507565b820191906000526020600020905b8154815290600101906020018083116104ea57829003601f168201915b5050505050905090565b600061051c82610f86565b506000908152600460205260409020546001600160a01b031690565b6000610543826108e2565b9050806001600160a01b0316836001600160a01b031614156105b65760405162461bcd60e51b815260206004820152602160248201527f4552433732313a20617070726f76616c20746f2063757272656e74206f776e656044820152603960f91b60648201526084015b60405180910390fd5b336001600160a01b03821614806105d257506105d281336103d7565b6106445760405162461bcd60e51b815260206004820152603e60248201527f4552433732313a20617070726f76652063616c6c6572206973206e6f7420746f60448201527f6b656e206f776e6572206e6f7220617070726f76656420666f7220616c6c000060648201526084016105ad565b61064e8383610fe8565b505050565b61065d3382611056565b6106795760405162461bcd60e51b81526004016105ad90612078565b61064e8383836110d4565b61064e83838360405180602001604052806000815250610bf6565b606060006106ac60075490565b905060008080805b848110156107445733600b60006106cc8460016120d4565b81526020810191909152604001600020600101546001600160a01b0316148061071f575033600b60006107008460016120d4565b81526020810191909152604001600020600201546001600160a01b0316145b156107325761072f6001856120d4565b93505b8061073c8161217e565b9150506106b4565b5060008367ffffffffffffffff81111561076e57634e487b7160e01b600052604160045260246000fd5b6040519080825280602002602001820160405280156107a757816020015b610794611a9b565b81526020019060019003908161078c5790505b50905060005b858110156108d85733600b60006107c58460016120d4565b81526020810191909152604001600020600101546001600160a01b03161480610818575033600b60006107f98460016120d4565b81526020810191909152604001600020600201546001600160a01b0316145b156108c6576108288160016120d4565b6000818152600b6020908152604091829020825160a0810184528154815260018201546001600160a01b039081169382019390935260028201549092169282019290925260038201546060820152600482015460ff1615156080820152845192955090918490879081106108ac57634e487b7160e01b600052603260045260246000fd5b60209081029190910101526108c26001866120d4565b9450505b806108d08161217e565b9150506107ad565b5095945050505050565b6000818152600260205260408120546001600160a01b0316806104795760405162461bcd60e51b8152602060048201526018602482015277115490cdcc8c4e881a5b9d985b1a59081d1bdad95b88125160421b60448201526064016105ad565b60006001600160a01b0382166109ac5760405162461bcd60e51b815260206004820152602960248201527f4552433732313a2061646472657373207a65726f206973206e6f7420612076616044820152683634b21037bbb732b960b91b60648201526084016105ad565b506001600160a01b031660009081526003602052604090205490565b60006109d8600780546001019055565b60006109e360075490565b90506109ef3382611270565b6109f9818561128a565b610a038184611324565b9392505050565b610a12611a9b565b506000908152600b6020908152604091829020825160a0810184528154815260018201546001600160a01b03908116938201939093526002820154909216928201929092526003820154606082015260049091015460ff161515608082015290565b60606001805461048e90612143565b6000818152600b6020526040902060038101546002909101546001600160a01b0316348214610b1c576040805162461bcd60e51b81526020600482015260248101919091527f506c65617365207375626d6974207468652061736b696e67207072696365206960448201527f6e206f7264657220746f20636f6d706c6574652074686520707572636861736560648201526084016105ad565b6000838152600b6020526040902060048101805460ff1916600117905560020180546001600160a01b03191633179055610b5a600880546001019055565b610b653033856110d4565b610b6f3084610538565b600954600a546040516001600160a01b039092169181156108fc0291906000818181858888f19350505050158015610bab573d6000803e3d6000fd5b506040516001600160a01b038216903480156108fc02916000818181858888f19350505050158015610be1573d6000803e3d6000fd5b50505050565b610bf233838361144f565b5050565b610c003383611056565b610c1c5760405162461bcd60e51b81526004016105ad90612078565b610be18484848461151e565b6009546001600160a01b03163314610c8e5760405162461bcd60e51b815260206004820152602360248201527f4f6e6c79206f776e65722063616e20757064617465206c697374696e6720707260448201526269636560e81b60648201526084016105ad565b600a55565b6060610c9e82610f86565b60008281526006602052604081208054610cb790612143565b80601f0160208091040260200160405190810160405280929190818152602001828054610ce390612143565b8015610d305780601f10610d0557610100808354040283529160200191610d30565b820191906000526020600020905b815481529060010190602001808311610d1357829003601f168201915b505050505090506000610d4e60408051602081019091526000815290565b9050805160001415610d61575092915050565b815115610d93578082604051602001610d7b929190611ed4565b60405160208183030381529060405292505050919050565b610d9c84611551565b949350505050565b610dac611a9b565b6000610db760075490565b6000908152600b6020908152604091829020825160a0810184528154815260018201546001600160a01b03908116938201939093526002820154909216928201929092526003820154606082015260049091015460ff161515608082015292915050565b60606000610e2860075490565b905060008167ffffffffffffffff811115610e5357634e487b7160e01b600052604160045260246000fd5b604051908082528060200260200182016040528015610e8c57816020015b610e79611a9b565b815260200190600190039081610e715790505b509050600080805b84811015610f5757610ea78160016120d4565b6000818152600b6020908152604091829020825160a0810184528154815260018201546001600160a01b039081169382019390935260028201549092169282019290925260038201546060820152600482015460ff161515608082015286519294509091869086908110610f2b57634e487b7160e01b600052603260045260246000fd5b6020908102919091010152610f416001856120d4565b9350508080610f4f9061217e565b915050610e94565b5091949350505050565b6000610f6c60075490565b905090565b610f7b848461128a565b610be18483836115c4565b6000818152600260205260409020546001600160a01b0316610fe55760405162461bcd60e51b8152602060048201526018602482015277115490cdcc8c4e881a5b9d985b1a59081d1bdad95b88125160421b60448201526064016105ad565b50565b600081815260046020526040902080546001600160a01b0319166001600160a01b038416908117909155819061101d826108e2565b6001600160a01b03167f8c5be1e5ebec7d5bd14f71427d1e84f3dd0314c0f7b2291e5b200ac8c7c3b92560405160405180910390a45050565b600080611062836108e2565b9050806001600160a01b0316846001600160a01b031614806110a957506001600160a01b0380821660009081526005602090815260408083209388168352929052205460ff165b80610d9c5750836001600160a01b03166110c284610511565b6001600160a01b031614949350505050565b826001600160a01b03166110e7826108e2565b6001600160a01b03161461114b5760405162461bcd60e51b815260206004820152602560248201527f4552433732313a207472616e736665722066726f6d20696e636f72726563742060448201526437bbb732b960d91b60648201526084016105ad565b6001600160a01b0382166111ad5760405162461bcd60e51b8152602060048201526024808201527f4552433732313a207472616e7366657220746f20746865207a65726f206164646044820152637265737360e01b60648201526084016105ad565b6111b8600082610fe8565b6001600160a01b03831660009081526003602052604081208054600192906111e1908490612100565b90915550506001600160a01b038216600090815260036020526040812080546001929061120f9084906120d4565b909155505060008181526002602052604080822080546001600160a01b0319166001600160a01b0386811691821790925591518493918716917fddf252ad1be2c89b69c2b068fc378daa952ba7f163c4a11628f55a4df523b3ef91a4505050565b610bf28282604051806020016040528060008152506116ff565b6000828152600260205260409020546001600160a01b03166113055760405162461bcd60e51b815260206004820152602e60248201527f45524337323155524953746f726167653a2055524920736574206f66206e6f6e60448201526d32bc34b9ba32b73a103a37b5b2b760911b60648201526084016105ad565b6000828152600660209081526040909120825161064e92840190611ac9565b600a5434146113455760405162461bcd60e51b81526004016105ad90611ff3565b600081116113655760405162461bcd60e51b81526004016105ad90612036565b6040805160a081018252838152306020808301828152338486018181526060860188815260016080880181815260008c8152600b9097529890952096518755925193860180546001600160a01b039586166001600160a01b03199182161790915590516002870180549190951691161790925551600384015592516004909201805492151560ff19909316929092179091556114029190846110d4565b604080513081523360208201529081018290526001606082015282907f9339409317fd01fabff48b703019016f49159bacc801ae872d2ca637d226e4c09060800160405180910390a25050565b816001600160a01b0316836001600160a01b031614156114b15760405162461bcd60e51b815260206004820152601960248201527f4552433732313a20617070726f766520746f2063616c6c65720000000000000060448201526064016105ad565b6001600160a01b03838116600081815260056020908152604080832094871680845294825291829020805460ff191686151590811790915591519182527f17307eab39ab6107e8899845ad3d59bd9653f200f220920489ca2b5937696c31910160405180910390a3505050565b6115298484846110d4565b61153584848484611732565b610be15760405162461bcd60e51b81526004016105ad90611fa1565b606061155c82610f86565b600061157360408051602081019091526000815290565b905060008151116115935760405180602001604052806000815250610a03565b8061159d8461183f565b6040516020016115ae929190611ed4565b6040516020818303038152906040529392505050565b600a5434146115e55760405162461bcd60e51b81526004016105ad90611ff3565b600082116116055760405162461bcd60e51b81526004016105ad90612036565b6040805160a0810182528481523060208083018281526001600160a01b038681168587019081526060860189815260016080880181815260008d8152600b9097529589902097518855935187850180549185166001600160a01b031992831617905591516002880180549190941692169190911790915551600385015590516004909301805493151560ff1990941693909317909255915185927f9339409317fd01fabff48b703019016f49159bacc801ae872d2ca637d226e4c0926116f292869188916001600160a01b0394851681529290931660208301526040820152901515606082015260800190565b60405180910390a2505050565b6117098383611959565b6117166000848484611732565b61064e5760405162461bcd60e51b81526004016105ad90611fa1565b60006001600160a01b0384163b1561183457604051630a85bd0160e11b81526001600160a01b0385169063150b7a0290611776903390899088908890600401611f03565b602060405180830381600087803b15801561179057600080fd5b505af19250505080156117c0575060408051601f3d908101601f191682019092526117bd91810190611d92565b60015b61181a573d8080156117ee576040519150601f19603f3d011682016040523d82523d6000602084013e6117f3565b606091505b5080516118125760405162461bcd60e51b81526004016105ad90611fa1565b805181602001fd5b6001600160e01b031916630a85bd0160e11b149050610d9c565b506001949350505050565b6060816118635750506040805180820190915260018152600360fc1b602082015290565b8160005b811561188d57806118778161217e565b91506118869050600a836120ec565b9150611867565b60008167ffffffffffffffff8111156118b657634e487b7160e01b600052604160045260246000fd5b6040519080825280601f01601f1916602001820160405280156118e0576020820181803683370190505b5090505b8415610d9c576118f5600183612100565b9150611902600a86612199565b61190d9060306120d4565b60f81b81838151811061193057634e487b7160e01b600052603260045260246000fd5b60200101906001600160f81b031916908160001a905350611952600a866120ec565b94506118e4565b6001600160a01b0382166119af5760405162461bcd60e51b815260206004820181905260248201527f4552433732313a206d696e7420746f20746865207a65726f206164647265737360448201526064016105ad565b6000818152600260205260409020546001600160a01b031615611a145760405162461bcd60e51b815260206004820152601c60248201527f4552433732313a20746f6b656e20616c7265616479206d696e7465640000000060448201526064016105ad565b6001600160a01b0382166000908152600360205260408120805460019290611a3d9084906120d4565b909155505060008181526002602052604080822080546001600160a01b0319166001600160a01b03861690811790915590518392907fddf252ad1be2c89b69c2b068fc378daa952ba7f163c4a11628f55a4df523b3ef908290a45050565b6040805160a08101825260008082526020820181905291810182905260608101829052608081019190915290565b828054611ad590612143565b90600052602060002090601f016020900481019282611af75760008555611b3d565b82601f10611b1057805160ff1916838001178555611b3d565b82800160010185558215611b3d579182015b82811115611b3d578251825591602001919060010190611b22565b50611b49929150611b4d565b5090565b5b80821115611b495760008155600101611b4e565b600067ffffffffffffffff80841115611b7d57611b7d6121d9565b604051601f8501601f19908116603f01168101908282118183101715611ba557611ba56121d9565b81604052809350858152868686011115611bbe57600080fd5b858560208301376000602087830101525050509392505050565b80356001600160a01b0381168114611bef57600080fd5b919050565b600082601f830112611c04578081fd5b610a0383833560208501611b62565b600060208284031215611c24578081fd5b610a0382611bd8565b60008060408385031215611c3f578081fd5b611c4883611bd8565b9150611c5660208401611bd8565b90509250929050565b600080600060608486031215611c73578081fd5b611c7c84611bd8565b9250611c8a60208501611bd8565b9150604084013590509250925092565b60008060008060808587031215611caf578081fd5b611cb885611bd8565b9350611cc660208601611bd8565b925060408501359150606085013567ffffffffffffffff811115611ce8578182fd5b8501601f81018713611cf8578182fd5b611d0787823560208401611b62565b91505092959194509250565b60008060408385031215611d25578182fd5b611d2e83611bd8565b915060208301358015158114611d42578182fd5b809150509250929050565b60008060408385031215611d5f578182fd5b611d6883611bd8565b946020939093013593505050565b600060208284031215611d87578081fd5b8135610a03816121ef565b600060208284031215611da3578081fd5b8151610a03816121ef565b60008060408385031215611dc0578182fd5b823567ffffffffffffffff811115611dd6578283fd5b611de285828601611bf4565b95602094909401359450505050565b600060208284031215611e02578081fd5b5035919050565b60008060008060808587031215611e1e578384fd5b84359350602085013567ffffffffffffffff811115611e3b578384fd5b611e4787828801611bf4565b93505060408501359150611e5d60608601611bd8565b905092959194509250565b60008151808452611e80816020860160208601612117565b601f01601f19169290920160200192915050565b805182526020808201516001600160a01b039081169184019190915260408083015190911690830152606080820151908301526080908101511515910152565b60008351611ee6818460208801612117565b835190830190611efa818360208801612117565b01949350505050565b6001600160a01b0385811682528416602082015260408101839052608060608201819052600090611f3690830184611e68565b9695505050505050565b6020808252825182820181905260009190848201906040850190845b81811015611f8257611f6f838551611e94565b9284019260a09290920191600101611f5c565b50909695505050505050565b602081526000610a036020830184611e68565b60208082526032908201527f4552433732313a207472616e7366657220746f206e6f6e20455243373231526560408201527131b2b4bb32b91034b6b83632b6b2b73a32b960711b606082015260800190565b60208082526023908201527f486f706566756c6c792073656e64696e672074686520636f727265637420707260408201526269636560e81b606082015260800190565b60208082526022908201527f4d616b652073757265207468652070726963652069736e2774206e6567617469604082015261766560f01b606082015260800190565b6020808252602e908201527f4552433732313a2063616c6c6572206973206e6f7420746f6b656e206f776e6560408201526d1c881b9bdc88185c1c1c9bdd995960921b606082015260800190565b60a081016104798284611e94565b600082198211156120e7576120e76121ad565b500190565b6000826120fb576120fb6121c3565b500490565b600082821015612112576121126121ad565b500390565b60005b8381101561213257818101518382015260200161211a565b83811115610be15750506000910152565b600181811c9082168061215757607f821691505b6020821081141561217857634e487b7160e01b600052602260045260246000fd5b50919050565b6000600019821415612192576121926121ad565b5060010190565b6000826121a8576121a86121c3565b500690565b634e487b7160e01b600052601160045260246000fd5b634e487b7160e01b600052601260045260246000fd5b634e487b7160e01b600052604160045260246000fd5b6001600160e01b031981168114610fe557600080fdfea26469706673582212206a54b3e02ecb5eb44b60f97ef8e13ad70ec6a97a8f9659b7beb41ce438f0d16164736f6c63430008040033",
  "linkReferences": {},
  "deployedLinkReferences": {}
}